:020000040800F2
:10000000500F00207D1E0008250100082701000870
:10001000290100082B0100082D0100080000000044
:100020000000000000000000000000002F01000898
:10003000310100080000000033010008350100080C
:10004000971E0008971E0008971E0008971E0008BC
:10005000971E0008971E0008971E0008971E0008AC
:10006000971E0008971E0008971E0008971E00089C
:10007000971E0008971E0008971E0008971E00088C
:10008000971E0008971E0008971E0008971E00087C
:10009000971E0008971E0008971E0008971E00086C
:1000A000971E0008971E0008971E0008971E00085C
:1000B000C72F00084B290008971E0008971E00084C
:1000C000971E0008971E0008971E0008971E00083C
:1000D000971E0008532300088B230008C52300083F
:1000E000971E0008971E0008971E0008DFF80CD026
:1000F00003F0DAFC0048004701010008500F00201F
:1001000070B5032402F045FC054D03E002212846AA
:1001100002F0A3FD641EF9D200F046F8002070BD85
:10012000003801407047FEE7FEE7FEE7FEE7704754
:10013000704770477047000070B51C2200213C4892
:1001400002F07BFA3A49182201F11800054602F044
:10015000E2FE002827D0374C204602F057F836A0A0
:1001600003F072FD1C222115314802F066FA1822B4
:100170002F49284602F0CFFE002814D0204602F076
:1001800045F836A003F060FD294801210160891E71
:1001900001614FF41651816041604FF46141C160CB
:1001A0004FF07E51416170BD7CB53A4B3C493A4AB3
:1001B0005D683A4C4868002D2CD0002831D0009260
:1001C0001C4C204602F022F836A0009903F03CFDBA
:1001D000009909682046019102F018F8009850F83B
:1001E000041C34A003F030FD009850F8041C38487B
:1001F0000140B1F1005F16D0204602F007F80098E8
:1002000050F8042C011F33A003F01EFDBDE87C4014
:1002100002F0B2BB00920028D2D188689968884267
:10022000CED90094CCE7019802B0BDE870400047F9
:10023000500200200048004047657420496E6974F0
:100240005F496E666F204372633136206368656371
:100250006B20657272210D0A000000004765742052
:10026000496E69745F496E666F2043726331362050
:10027000636865636B2065727220666F726D2062C1
:1002800061636B2C7573657220646566616C75744F
:10029000210D0A00980A00200460000804380108B3
:1002A000A40A00204A756D7020746F20307825787C
:1002B0000D0A00002A28767533322A294A756D7096
:1002C0005F41646472203D20307825780D0A00007B
:1002D0000000FE2F4572726F723A2A28767533320B
:1002E0002A292558203D20307825780D0A00000065
:1002F0002749084327490860704770B50F23C27823
:10030000017801244FF0E025DAB1224A126802F4A4
:10031000E062C2F5E062120AC2F10406D3404278FC
:10032000B24086781E401C4B16433201CA540078F6
:1003300000F01F018C40400905EB8000C0F800412F
:1003400070BD01F01F008440480905EB8000C0F833
:10035000804170BD114A114001430E48001F0160E9
:1003600070470C4A121D0029116801D0014300E0BA
:100370008143116070474FF0E0210428086903D0E1
:1003800020F004000861704740F00400FAE7000024
:100390000000FA050CED00E000E400E080FFFF1F24
:1003A000FD4A116801F03801014311607047FA49B4
:1003B0000A6822F008020A600A6802430A6070476D
:1003C000F5490A6822F010020A600A6802430A60CE
:1003D0007047F148F1494160F14941607047EE488A
:1003E000EE494160EE4941607047EB48016941F0D8
:1003F000800101617047E848016941F080010161B5
:100400007047E5490420CA68D20701D0012070472F
:10041000CA68520701D502207047C968C906FBD5D2
:100420000320704700B50346FFF7EBFF02E0FFF73C
:10043000E8FF5B1E012803D0002B00D1052000BD82
:10044000002BF4D1FAE770B505464FF4302630465C
:10045000FFF7E8FF042811D1CF4C206940F00200DB
:1004600020616561206940F0400020613046FFF75F
:10047000D9FF216941F6FD721140216170BD30B58F
:100480004FF430252846FFF7CDFF042810D1C24C89
:10049000206940F004002061206940F040002061A4
:1004A0002846FFF7BFFF216941F6FB721140216129
:1004B00030BD00B50346FFF7A4FF02E0FFF7A1FF40
:1004C0005B1E012803D0002B00D1052000BD002BAE
:1004D000F4D1FAE730B54FF430252846FFF7E9FFAD
:1004E000042810D1AC4C206940F004002061206940
:1004F00040F0400020612846FFF7DBFF216941F60C
:10050000FB721140216130BDA3490020C9698907F0
:1005100000D50120704770B5A525FFF7F5FF00B1A4
:1005200000254FF430263046FFF77CFF042827D102
:10053000994C9A48A0609A48A060206940F0200039
:100540002061206940F0400020613046FFF76AFFDB
:1005500041F6EF7604280ED1206941F6DF7108409C
:100560002061206940F0100020618E4805804FF422
:100570000050FFF757FF052802D021693140216163
:1005800070BDF8B5064600204FF4005C00900D46A3
:100590006046FFF747FF042816D17F4C206940F0E2
:1005A0000100206135806046FFF73CFF41F6FE7791
:1005B000042806D1B61C280C009630806046FFF750
:1005C00031FF216939402161F8BDF0B506464FF48D
:1005D00000570D463846FFF725FF04280CD16E4C16
:1005E000206940F00100206135803846FFF71AFF8E
:1005F0002169BA1E11402161F0BDF0B506464FF4E5
:1006000000570D463846FFF70DFF042813D1624C02
:100610006248A0606248A060206940F0100020613C
:1006200035803846FFF7FEFE052804D0216941F6E3
:10063000EF7211402161F0BD2DE9F041C043C7B216
:10064000C0F30726C0F30745040E4FF40058404698
:10065000FFF7E8FE04283CD1DFF83CC14F49CCF855
:1006600008104F49CCF80810DCF8101041F01001C8
:10067000CCF81010FF2F07D04A48083007804046BA
:10068000FFF7D0FE04281BD1FF2E07D045480A30C3
:1006900006804046FFF7C6FE042811D1FF2D07D083
:1006A00040480C3005804046FFF7BCFE042807D1C7
:1006B000FF2C07D03B480E3004804046FFF7B2FEC7
:1006C000052806D0DCF8101041F6EF721140CCF886
:1006D0001010BDE8F08170B505464FF43026304665
:1006E000FFF7A0FE042818D12B4C2C48A0602C4802
:1006F000A060206940F020002061206940F04000A7
:1007000020613046FFF78EFE41F6DF71042805D0E8
:10071000052802D022690A40226170BD2069084084
:100720002061206940F0100020611E480DB10021B9
:1007300000E0A52101803046FFF774FE0528ECD0CB
:10074000216941F6EF721140216170BDF0B5124C84
:100750000746124816460D46A0601148A0604FF4A7
:10076000005C6046FFF75EFE042814D1206940F06B
:100770001000206135430B493D43891C45F0F800CA
:1007800008806046FFF74EFE052804D0216941F637
:10079000EF7211402161F0BD002002402301674546
:1007A000AB89EFCD00F8FF1F1C48C0698008704777
:1007B0001A48006A7047194900200968890600D55F
:1007C00001207047154A0029116901D0014300E05A
:1007D00081431161704701460020104A012903D06E
:1007E000D2680A4203D17047D169C907FBD0012002
:1007F00070470A49C860704708490420CA68D20790
:1008000001D001207047CA68520701D50220704705
:10081000C968C906FBD503207047000000200240CC
:100820008E4910B5884206D10121042000F0D9FB81
:10083000002104203BE08A49884206D1012108209A
:1008400000F0CFFB0021082031E08649884206D124
:100850000121102000F0C5FB0021102027E0824973
:10086000884206D10121202000F0BBFB002120207E
:100870001DE07E49884206D10121402000F0B1FBF5
:100880000021402013E07A49884206D101218020CE
:1008900000F0A7FB0021802009E0764988420AD1B8
:1008A00084150121204600F09CFB00212046BDE874
:1008B000104000F096BB10BD10B50121084600F0B5
:1008C00090FB0021BDE81040012000F08ABBF0B58C
:1008D000CC78002204F00F03E40601D58C78234382
:1008E0000C784FF00F0C4FF0010EDCB105680E884C
:1008F0000EFA02F42640A64210D196000CFA06F732
:1009000025EA070703FA06F5CE783D43282E02D0E4
:10091000482E02D002E0446100E00461521C082A23
:10092000E5D305600A88FF2A1CD94468002202F139
:1009300008060EFA06F50E882E40AE420ED196003D
:100940000CFA06F7BC4303FA06F7CE783C43282E90
:1009500000D14561CE78482E00D10561521C082A8D
:10096000E5D34460F0BD4FF6FF7101800221817034
:100970000421C17070470246002092680A4200D0EC
:1009800001207047806880B2704702460020D2681C
:100990000A4200D001207047C06880B270470161F0
:1009A0007047416170470AB101617047416170470A
:1009B000C160704741F480328261816182618169E6
:1009C000806970472C4B10B51A684FF6807422402E
:1009D00042EA00100843186010BD2849C8617047FA
:1009E000F0B5254C002801DAE36900E06368450DA5
:1009F0002E0185B2C0F30157B540C0F30342032F67
:100A000005D0C6020AD503269640B34307E023F07B
:100A10007062636823F07063636002E0AB4343F08D
:100A2000706201B12A43002801DAE261F0BD626020
:100A3000F0BD10B58A0721F003040F49120F2144BD
:100A40000F238C6893409C438C608B6890400343D9
:100A50008B6010BD0949DC31086070470008014017
:100A6000000C01400010014000140140001801403A
:100A7000001C014000200140000001400000204215
:100A8000C54910B588424FF0010101D14C0501E084
:100A90004FF48004204600F0ADFA2046BDE8104037
:100AA000002100F0A7BA70B50446808886B00D46D4
:100AB00020F03F06684600F037FAB8490298B0FBCC
:100AC000F1F189B20E43A680228822F00102228031
:100AD000B34B2A689A421CD85200B0FBF2F080B2A5
:100AE000042800D20420491C2184A083208840F0DF
:100AF0000100208020884FF6F5310840A9886A89D6
:100B0000114301432180A88929890843208106B027
:100B100070BDEB88A3F53F46FF3E05D102EB4202D4
:100B2000B0FBF2F080B208E002EBC20303EB02126A
:100B3000B0FBF2F080B240F48040020501D140F0F9
:100B400001004FF4967251434FF47A72B1FBF2F107
:100B500040F40040C7E741F2883101600021818004
:100B60004BF6FF72C280018141814FF48041818147
:100B700070470029018802D041F0010101E021F015
:100B80000101018070470029818802D041F4006191
:100B900001E021F40061818070470029818802D042
:100BA00041F4805101E021F4805181807047002997
:100BB000018802D041F4807101E021F4807101804C
:100BC00070470029018802D041F4007101E021F44E
:100BD0000071018070470029018802D041F48061D2
:100BE00001E021F4806101807047828901F0FE01FB
:100BF00022F0FE021143818170470029818902D0D1
:100C000041F0010101E021F00101818170470029DB
:100C1000018802D041F0400101E021F04001018053
:100C20007047002A828801D00A4300E08A4382800C
:100C3000704701827047008AC0B2704712B141F01C
:100C4000010101E001F0FE010182704708B508448E
:100C50000090008808BD0029018802D041F40041BD
:100C600001E0C1F30E0101807047B1F5006F01880A
:100C700003D021F400610180704741F40061FAE77C
:100C8000B1F5005F018803D021F400510180704765
:100C900041F40051FAE70029018802D041F4805163
:100CA00001E021F4805101807047B1F5006F0188A7
:100CB00003D021F400610180704741F40061FAE73C
:100CC0000029018802D041F0200101E021F020013B
:100CD00001807047008B000A70470029018802D00C
:100CE00041F0100101E021F010010180704700295E
:100CF000018803D021F080010180704741F080011C
:100D0000FAE7B1F5804F818B02D021F4804101E0F8
:100D100041F4804181837047034600209A8A1B8BEF
:100D200042EA034222F07F42914300D10120704702
:100D3000818A008B41EA004121F07F4070470CB569
:100D40000246002000920A0F21F07F41019202D05A
:100D5000009A143202E0009A090C183200921268CC
:100D60000A4200D001200CBDC9438182704710B5F2
:100D7000034600209A884FF4E06404EA11449B8AF9
:100D8000224021F07F410B4202D0002A00D00120F6
:100D900010BDC943818270470054004040420F009B
:100DA000A0860100A548016841F001010160416889
:100DB000A34A114041600168A24A114001600168E4
:100DC00021F480210160416821F4FE0141604FF46B
:100DD0001F018160704799490A6822F480320A60D5
:100DE0000A6822F480220A60B0F5803F07D0B0F58F
:100DF000802F03D1086840F4A0200860704708687D
:100E000040F48030F9E70346002059098B4A012954
:100E10000AD002290AD0516A03F01F02012393402D
:100E20000B4200D0012070471168F5E7116AF3E723
:100E300018B500204FF4A06400903120FFF7E3FFC5
:100E40000099491C0091A14201D00028F5D0312021
:100E5000FFF7D9FF002800D0012018BD774A11689C
:100E600021F0F80141EAC00010607047764908603F
:100E70007047724B5A68084322F47C121043586042
:100E800070477149086670476C4A516821F0030148
:100E90000143516070476948406800F00C0070479A
:100EA000664A516821F0F001014351607047634A7E
:100EB000516821F4E0610143516070475F4A516815
:100EC00021F4605141EAC000506070475B4A00293C
:100ED000517A01D0014300E08143517270475A4971
:100EE000D83108607047554A516821F440410143A8
:100EF000516070475149002281F8202081F820205C
:100F0000012802D0042802D1052081F82000704772
:100F10004E490860704749490A6A02430A627047AD
:100F20004A4944390860704730B5444A5168484BD3
:100F300011F00C0103D0042901D0082901D003606D
:100F400012E05168536801F470114FF0020413F479
:100F5000803F04EB914102D053689B0301D53D4B88
:100F600000E03B4B5943016051680F2303EA111124
:100F7000394B5C5C0168E14041605468072505EA33
:100F800014241C5D21FA04F48460546805EAD42416
:100F90001B5DD940C1605268032303EA92322E4B95
:100FA0001B1F9A5CB1FBF2F1016130BD234A00299D
:100FB000516901D0014300E08143516170471F4AEC
:100FC0000029916901D0014300E08143916170479C
:100FD0001A4A0029D16901D0014300E08143D1615F
:100FE0007047164A0029D16801D0014300E08143CF
:100FF000D1607047114A0029116901D0014300E016
:1010000081431161704711494039086070470E49AA
:10101000C86470470949C87170470848416A41F07F
:10102000807141627047054A0146002092680A4279
:1010300000D00120704701498872704700100240BB
:101040000000FFF8FFFFF6FE00004242800442422B
:1010500000127A0000093D0004000020F94910B593
:10106000884202D10121C41486E0B0F1804F09D03A
:10107000F54988420DD101210220FFF7BBFF002175
:10108000022064E001210846FFF7B4FF002101209F
:101090005DE0EE49884206D101210420FFF7AAFF56
:1010A0000021042053E0EA49884206D101210820AA
:1010B000FFF7A0FF0021082049E0E649884206D159
:1010C00001211020FFF796FF002110203FE0E249A8
:1010D000884206D101212020FFF78CFF002120202B
:1010E00035E0DE49884202D10121441444E0DC4964
:1010F000884202D10121CC043EE0DA49884202D183
:1011000001210C0538E0D849884202D101214C0563
:1011100032E0D649884206D101214020FFF76AFF1C
:101120000021402013E0D249884206D101218020CD
:10113000FFF760FF0021802009E0CE4988420AD1F4
:10114000841501212046FFF755FF00212046BDE808
:101150001040FFF74FBFC849884202D101210C045B
:101160000AE0C649884202D101214C0404E0C44986
:1011700088420AD101218C042046FFF732FF204625
:10118000BDE810400021FFF72CBF10BD30B502882C
:10119000AC4CB24DA0420DD0A8420BD0B0F1804F64
:1011A00008D0A94B984205D0A84B984202D0A84B32
:1011B000984203D122F070034A881A43A54B984203
:1011C00006D0A54B984203D022F44073CA881A4334
:1011D00002808A8882850A880285A0420AD0A842B5
:1011E00008D0A54A904205D0A44A904202D0A44A11
:1011F000904201D1097A01860121818230BD30B54A
:10120000028C22F001020284028C8388048B22F07B
:10121000020224F073050C882C430D8915434A887B
:101220002A43884DA8420BD08C4DA84208D0924D3D
:10123000A84205D0914DA84202D0914DA8420DD1AF
:1012400022F008054A8923F440732A4322F004055A
:101250008A882A438D891D43CB892B43838004834D
:10126000C9888186028430BD70B5028C22F01002DC
:101270000284028C8388048B0D8824F4E6464FF6A2
:10128000FF7404EA052535430E8922F0200204EAA2
:10129000061616434A8804EA02123243694EB042E7
:1012A00002D06E4EB04215D122F080064A8923F456
:1012B000406304EA0212324322F040068A8804EABC
:1012C000021232438E8904EA86061E43CB8904EA61
:1012D0008303334383800583C9880187028470BDFB
:1012E00070B5028C22F480720284028C8388848B15
:1012F0000D8824F0730425430E894FF6FF7422F401
:10130000007204EA062616434A8804EA022232439F
:101310004C4EB04202D0514EB04215D122F400667C
:101320004A8923F4405304EA0222324322F48066BD
:101330008A8804EA022232438E8904EA06161E4392
:10134000CB8904EA0313334383808583C98881876B
:10135000028470BD70B5028C22F480520284058C28
:101360008288838B0C8823F4E6464FF6FF7303EAEA
:101370000424344325F400560D8903EA053535432A
:101380004E8803EA06362E432E4DA84202D0334D36
:10139000A84205D122F480458A8903EA82122A43B1
:1013A00082808483C988A0F84010068470BD828B37
:1013B00022F440628283828B4FF6FF7303EA01219D
:1013C0000A4382837047828B22F00C028283828BD5
:1013D0000A4382837047028B22F440620283028BAD
:1013E0004FF6FF7303EA01210A4302837047F0B509
:1013F000048C24F010040484078B048C4FF6FF75D2
:1014000027F4734705EA03333B4305EA02221A43F4
:101410000C4B05EA011698420ED0104B98420BD0A7
:10142000B0F1804F08D0084B984205D0074B984246
:1014300002D0074B984225D124F02001314341F0DE
:10144000100124E0002C014000040040000800408E
:10145000000C004000100040001400400034014027
:10146000004C014000500140005401400018004071
:10147000001C0040002000400040014000440140AA
:101480000048014024F0A0030B4343F01001028305
:101490000184F0BD028B22F00C020283028B0A430E
:1014A0000283704770B5048C24F001040484058B1A
:1014B000048C4FF6FF7606EA0313134325F0F30579
:1014C000F84A2B4390420ED0F74A90420BD0B0F12D
:1014D000804F08D0F54A904205D0F54A904202D09C
:1014E000F44A904202D124F0020201E024F00A0200
:1014F0000A4342F001010383018470BD2DE9F84FD6
:101500000D4604460888E74FDFF89CC3DFF89C834C
:10151000DFF89C934988AA882B894FF0804A48B30A
:1015200004282FD04FF6FF760828934632D0208C1F
:101530009E4620F480502084A38B208C06EA013242
:10154000009223F4734306EA0B221A4306EA0E3391
:101550001343BC420AD0644508D0544506D04445E4
:1015600004D04C4502D0D34A944242D120F40050DA
:10157000009940E02046FFF795FFE9882046BDE846
:10158000F84F87E72046FFF732FFE9882046BDE89D
:10159000F84F20E7208C20F480702084B4F81CE001
:1015A000208C06EA031306EA01222EF0F30E43EA2A
:1015B0000B0343EA0E030092BC420AD0644508D0F4
:1015C000544506D0444504D04C4502D0B94A944213
:1015D00003D120F40070009901E020F4206008435A
:1015E00040F48070A3832084E9882046BDE8F84F4A
:1015F000E9E620F40240084340F48050A3832084AD
:10160000E9882046BDE8F84FD1E62DE9F0410C46C7
:10161000002649880746012501B90226A288012A29
:1016200000D10225208823890028384610D0FFF7F2
:10163000DEFEE1883846FFF7CEFE23892A46314692
:101640003846FFF72FFFE1883846BDE8F04121E733
:10165000FFF728FFE1883846FFF71CFF23892A4659
:1016600031463846FFF7C3FEE1883846BDE8F04111
:10167000B1E610B50A884B88CC881A438B8823437F
:101680001A430B891A434B8989891A430A43A0F8E4
:10169000442010BD4FF6FF71818000210180C18080
:1016A0004180017270470021018041808180C180AA
:1016B000018141818181C181704700210180418088
:1016C00001228280C1800181704700210180418018
:1016D0008180C18001814181818170470029018819
:1016E00002D041F0010101E021F0010101807047C9
:1016F000002930F8441F02D041F4004101E0C1F359
:101700000E0101807047002A828901D00A4300E05F
:101710008A4382817047818270471143A0F8481044
:101720007047002A828901D00A4300E08A438281FF
:101730007047018921F0070101817047028922F079
:1017400070020A430281704700B50346FFF7F6FFB7
:10175000188940F00700188100BD70B516460D4687
:10176000602904464FF0010231460AD0FFF79AFE85
:1017700029462046FFF7E2FF208940F0070020813C
:1017800070BDFFF734FEF3E730B504894FF6FF75FF
:1017900005EA03231343E4B20B432343038130BD23
:1017A00010B50446FFF7F0FF208940F07700208154
:1017B00010BD10B50446FFF7E7FF208940F48040D4
:1017C000208110BD018582827047028822F070025C
:1017D0000A430280704770B50589048B068C25F09A
:1017E00007050D434FF6FC410C4040F201110C433C
:1017F0004FF6FF7101EA031126F02206114331432F
:1018000005810483018470BD028B22F070020A43BB
:1018100002837047028B4FF6FF7322F4E04203EA23
:101820000121114301837047828B22F070020A4329
:1018300082837047828B4FF6FF7322F4E04203EA03
:1018400001211143818370470029018802D041F0B2
:10185000800101E021F0800101807047002981882A
:1018600002D041F0040101E021F0040181807047C1
:101870000029818802D041F0080101E021F008012F
:10188000818070470029818802D041F0010101E088
:1018900021F0010181807047028B22F008020A4387
:1018A00002837047002C01400034014000040040D6
:1018B00000080040000C0040028B4FF6FF7322F43A
:1018C000006203EA012111430183EAE7828B22F0DF
:1018D00008020A438283E4E7828B4FF6FF7322F407
:1018E000006203EA012111438183DAE7028B22F0CF
:1018F00004020A430283D4E7028B4FF6FF7322F4FB
:10190000806203EA012111430183CAE7828B22F03E
:1019100004020A438283C4E7828B4FF6FF7322F4EA
:10192000806203EA012111438183BAE7028B22F02E
:1019300080020A430283B4E7028B4FF6FF73C2F3BF
:101940000E0203EA012111430183AAE7828B22F0F0
:1019500080020A438283A4E7828B4FF6FF73C2F3AF
:101960000E0203EA0121114381839AE7028C22F0DF
:1019700002020A43028494E7028C22F008020A431E
:1019800002848EE7028C4FF6FF7322F0200203EAF6
:1019900001111143018484E7028C4FF6FF7322F09A
:1019A000800203EA0111114301847AE7028C4FF6A9
:1019B000FF7322F4007203EA01211143018470E7EE
:1019C000028C4FF6FF7322F4006203EA01211143F7
:1019D000018466E7028C4FF6FF7322F4005203EA9B
:1019E0000131114301845CE710B50123048C8B4065
:1019F0009C430484038C8A401343038410BD10B5B8
:101A00000423048C8B409C430484038C8A4013433E
:101A1000038410BD30B50124058C00F118038C40FF
:101A2000A543058489B108290FD0091FC1F34E00D1
:101A30001844016821F4E041016001684FF6FF732A
:101A400003EA02221143016030BD03EB510001683B
:101A500021F0700101600168F4E70029018802D0DB
:101A600041F0020101E021F00201018019E70029A3
:101A7000018802D041F0040101E021F0040101805D
:101A80000FE70029818802D041F0800101E021F0B8
:101A90008001818005E7028822F008020280028826
:101AA0000A430280FDE6828822F0700282808288EA
:101AB0000A438280F5E6028922F007020281028948
:101AC0000A430281EDE6028922F080020281028946
:101AD0000A430281E5E68184E3E68185E1E68186C9
:101AE000DFE60187DDE68187DBE6A0F84010D8E677
:101AF000028822F44072028002880A430280D0E603
:101B0000808ECEE6008FCCE6808FCAE6B0F840002B
:101B1000C7E6808CC5E6008DC3E602460020128A27
:101B20000A4200D00120BCE6C9430182B9E6024660
:101B30000020138A92890B4202EA010202D0002A95
:101B400000D00120ADE6C9430182AAE6C64910B51E
:101B500088420AD101218C032046FFF742FA204631
:101B6000BDE810400021FFF73CBAC049884202D1CD
:101B700001214C0410E0BE49884202D101218C04AD
:101B80000AE0BC49884202D10121CC0404E0BA49F0
:101B900088420AD101210C052046FFF72BFA204686
:101BA000BDE810400021FFF725BA10BD30B504464E
:101BB000008A85B00D464CF6FF710840E988014364
:101BC0002182A0894EF6F3110840A9882A89114381
:101BD0006A8902431143A181A08A4FF6FF41084060
:101BE000A9890143A1826846FFF79EF99E48844275
:101BF00001D1039800E00298A1890904002900EBB3
:101C0000C00101EB0010296802DA4FEA410101E04E
:101C10004FEA8101B0FBF1F06422B0FBF2F14FEA30
:101C200001114FEA11136FF018056B4300EB8300AD
:101C3000A3891D044FF0320306D503EBC000B0FBAF
:101C4000F2F000F0070005E003EB0010B0FBF2F04B
:101C500000F00F000843208105B030BD4FF416514D
:101C6000016000218180C18001810C22428181813B
:101C7000704710B5028A4FF2FF031A400B884C8858
:101C800023438C88C9880C4323431343038210BD2C
:101C90000021018041808180C180704700298189B5
:101CA00002D041F4005101E021F4005181817047DC
:101CB00010B5C1F3421301F01F040121A140012B13
:101CC00007D0022B07D01430002A026805D00A433F
:101CD00004E00C30F8E71030F6E78A43026010BDEC
:101CE000002A828A01D00A4300E08A438282704738
:101CF000028A22F00F020282028A0A43028270479D
:101D0000828922F40062828182890A43828170473B
:101D10000029818902D041F0020101E021F0020195
:101D200081817047028A22F020020282028A0A43DD
:101D3000028270470029018A02D041F4804101E00B
:101D400021F4804101827047C1F30801818070470E
:101D50008088C0F308007047818941F001018181CA
:101D60007047028BD2B20283028B42EA01210183C7
:101D70007047028B02F47F420283028B0A43028384
:101D800070470029818A02D041F0200101E021F052
:101D90002001818270470029818A02D041F0100120
:101DA00001E021F01001818270470029818A02D070
:101DB00041F0080101E021F008018182704700290B
:101DC000818902D041F4004101E0C1F30E0181811B
:101DD00070470029818A02D041F4006101E021F4BA
:101DE000006181827047828A22F004028282828AA4
:101DF0000A43828270470029818A02D041F00201A1
:101E000001E021F002018182704702460020128821
:101E10000A4200D001207047C9430180704770B565
:101E200001F01F0501260024C1F3421306FA05F252
:101E3000012B0FD0022B0FD0838A4FEA112100888B
:101E4000134206FA01F600EA060001D000B10124AF
:101E5000204670BD8389F0E7038AEEE70A0A012174
:101E60009140C94301807047003801400044004060
:101E700000480040004C00400050004006488047A9
:101E800006480047FEE7FEE7FEE7FEE7FEE7FEE75F
:101E9000FEE7FEE7FEE7FEE7411F0008ED00000851
:101EA0000CB500224C4800920192016841F4803147
:101EB00001604FF4A063016801F4003101910099C1
:101EC000491C0091019911B900999942F3D1016817
:101ED000890333D50121019140490A6842F010027B
:101EE0000A600A6822F003020A600A6842F00202ED
:101EF0000A604168416041684160416841F4806125
:101F00004160416821F47C114160416841F4E8116D
:101F10004160016841F08071016001688901FCD570
:101F2000416821F003014160416841F002014160D4
:101F30004168C1F381010229FAD10CBD01920CBDA7
:101F4000254810B5016841F0010101604168244A4B
:101F5000114041600168234A11400160016821F489
:101F600080210160416821F4FE0141604FF41F01AE
:101F70008160FFF795FF1C494FF00060086010BDBD
:101F8000154A10B55068194B10F00C01184803D0D1
:101F9000042901D0082901D0036012E05168536878
:101FA00001F470114FF0020413F4803F04EB9141EF
:101FB00002D053689B0301D50E4B00E00B4B5943F5
:101FC000016051680A4AC1F30311121D515C026895
:101FD000CA40026010BD0000001002400020024014
:101FE0000000FFF8FFFFF6FE08ED00E000127A00A7
:101FF0001400002000093D00FF4A10B50020C2F87F
:102000000004C2F8040402F58162FB4BC2F8040428
:102010000146C2F800044FF4806411541954401C66
:10202000A042FADB10BDF5494FF0000241184FF411
:1020300080600CD0B1F5744F13D1EF49C1F8002482
:10204000C1F8042400E00A54401EFCD108E0EC4929
:10205000C1F80024C1F8042400E00A54401EFCD159
:102060000A7070470FB42DE9F04F87B000249DF837
:1020700040102546264611A8CA0702D0119D00F13E
:1020800004008A0701D500F10400490700D506685D
:10209000012144F20500FEF792FF4FF40070ADF805
:1020A00000004FF0180BDFF85C838DF803B00327B6
:1020B0008DF8027069464046FEF709FC4FF4006057
:1020C000ADF8000010208DF803008DF8027069460D
:1020D0004046FEF7FCFB4FF48060ADF800004FF087
:1020E000040A8DF803A069464046FEF7F0FB252060
:1020F0008DF814004FF002098DF815904FF001088B
:102100008DF816808DF8178005A8FEF7F6F8019572
:10211000ADF80840ADF80C400C25ADF80A40ADF81C
:102120001040ADF80E5001A9B748FFF73FFD202140
:10213000B548FFF771FE012240F22551B248FFF782
:10214000B7FD0121B048FFF7A9FD01210920FEF7E5
:1021500036FF01218804FEF73BFF4FF48060ADF8A5
:1021600000008DF803B0DFF8A4B28DF80270694664
:102170005846FEF7ACFB4FF40060ADF800008DF858
:1021800003A069465846FEF7A2FB27208DF81400ED
:102190008DF815908DF816708DF8178005A8FEF74C
:1021A000ACF8ADF80840ADF80A40ADF80C40ADF819
:1021B0001040974C0196ADF80E5001A92046FFF74C
:1021C000F5FC20212046FFF727FE01212046FFF7DE
:1021D00065FD8D48FFF7BCFD88484042FFF7B8FD1C
:1021E0002046FFF7B5FDFFF707FF07B0BDE8F00F8A
:1021F0005DF814FB86490A8822F040020A80C0F389
:1022000008028A800A885206FCD570477B4941182B
:102210007C4808D0B1F5806F09D0B1F5744F06D174
:102220000122C11401E001221021FEF7BCBB70475E
:1022300072494118734808D0B1F5806F09D0B1F5E3
:10224000744F06D10022C11401E000221021FEF7D4
:10225000AABB7047694910B5411816D0B1F5806F17
:102260002DD0B1F5744F2AD1634901F58064D1F8BE
:102270000024D1F80414491E8A4220D0FFF768FDDB
:102280005D495D4AD1F800140FE05D4901F58064B5
:10229000D1F80024D1F80414491E8A420FD0FFF768
:1022A00057FD5749564AD1F8001450542068401C35
:1022B000C11700EB91516FF30901401A206010BD66
:1022C0002DE9F0411C4616460F4680460D46FFF7A5
:1022D000AFFF0DE04146284600F09FF810B16D1C9D
:1022E000761E05E0002C00DD641E012000F0E1F800
:1022F0000EB1002CEED1E81BBDE8F08108B50B460D
:1023000001226946FFF7DCFF10B19DF8000008BD0F
:10231000F02008BD70B515460C460646FFF776FF5F
:102320000EE040213046FFF777FD14F8011B3046E0
:10233000FFF70AFD40213046FFF767FD0128F9D17C
:102340006D1EEED270BD13B5012201A9FFF7E2FFA9
:102350001CBD70B52C4C08212046FFF756FD10B16E
:102360002046FFF7F5FC40F2255529462046FFF7A9
:102370004CFD002808D02046FFF76CFF2946204678
:10238000BDE87040FFF76ABD70BD70B51B4C0821F9
:1023900064422046FFF739FD10B12046FFF7D8FC14
:1023A00040F2255529462046FFF72FFD002808D08A
:1023B0002046FFF74FFF29462046BDE87040FFF753
:1023C0004DBD70BD70B5124C08212046FFF71DFDB4
:1023D00010B12046FFF7BCFC40F2255529462046A7
:1023E000FFF713FD002817D02046FFF733FF2946DB
:1023F0002046BDE870400DE06C02002000BCFFBF2D
:10240000740600200008014000380140000C014023
:1024100000480040FFF722BD70BD174A891811D04F
:10242000B1F5806F26D0B1F5744F23D1134A134B09
:1024300002F20441D2F80424D3F800349A4219D0AD
:102440000E4B0AE00E4A0E4B02F20441D2F804246D
:10245000D3F800349A420DD0094B9A5C0270086898
:10246000401CC21700EB92526FF30902801A0860F9
:10247000012070470020704700BCFFBF6C020020A5
:102480007406002010B56FF00400FDF774FF2048BB
:1024900020490068B0FBF1F01F49C0B200EB4002D8
:1024A0000870C2EBC0104FF6FF7202EAC00048800D
:1024B00010BD1949097848434FF0E02148610023D5
:1024C0008B61086940F0010008610869C20701D00A
:1024D000C003FAD5086920F0010008618B617047DC
:1024E0000D49498848434FF0E021486100238B6142
:1024F000086940F0010008610869C20701D0C00303
:10250000FAD5086920F0010008618B61704700006E
:102510001400002000127A002800002038B50121A4
:102520000D20FEF74CFD0220ADF8000010208DF8C4
:1025300003000320054C8DF8020069462046FEF793
:10254000C6F902212046FEF72AFA38BD000C0140E8
:102550001FB501210820FEF732FD01214805FEF7D5
:1025600037FDC020ADF8000003208DF802001C20CC
:102570008DF803006946D848FEF7A9F90020ADF8A8
:1025800004004BF6FF70ADF80600D448D44C8179B6
:10259000ADF808104FF48061ADF80A100901ADF8EC
:1025A0000C100068009001212046FEF7E2FA69460F
:1025B0002046FEF778FA1FBD2DE9F0410746C748CF
:1025C0000C460621007901EAD41600F0F000C44D53
:1025D000064301212846FEF7EAFADFF80883284679
:1025E0004146FEF799FB0028F9D0002231462846E3
:1025F000FEF724FBBC4E28463146FEF78DFB002833
:10260000F9D0E1B22846FEF714FBB74CA41C2146D2
:102610002846FEF781FB0028F9D039782846FEF7D6
:1026200008FB21462846FEF777FB0028F9D028460C
:10263000BDE8F0410121FEF7C4BA2DE9F047054697
:10264000A6480F46C1F302210079A54E00F0F00024
:10265000144640EA41094FF4003841463046FEF73F
:102660006EFB0028F9D10121B0463046FEF79FFAF3
:102670009C4E40463146FEF74FFB0028F9D0002221
:1026800049464046FEF7DAFADFF85CA2404651467A
:10269000FEF742FB0028F9D001214046FEF769FA17
:1026A000F9B24046FEF7C5FADFF83CA247460AF108
:1026B000020A51463846FEF72FFB0028F9D00121C7
:1026C0003846FEF774FA31463846FEF725FB0028F7
:1026D000F9D0012249463E463846FEF7AFFA814F0F
:1026E0007F1C39463046FEF717FB0028F9D07D4F96
:1026F0003F37BCB1012C07D100213046FEF76BFA01
:1027000001213046FEF75DFA39463046FEF704FBFC
:102710000028EED03046FEF78EFA641E05F8010B55
:10272000A4B2E6E73046BDE8F0470121FEF753BA10
:102730002DE9F047054669480E46C1F302210079AC
:10274000674F00F0F000144640EA41084FF40039AA
:1027500049463846FEF7F3FA0028F9D101213846F8
:10276000FEF725FADFF87C9138464946FEF7D4FAA1
:102770000028F9D0002241463846FEF75FFADFF81C
:10278000688138464146FEF7C7FA0028F9D0F1B211
:102790003E463846FEF74DFA534FBF1C3946304689
:1027A000FEF7BAFA0028F9D00AE029783046FEF799
:1027B00040FA6D1C39463046FEF7AEFA0028F9D0D3
:1027C0002000A4F10104E4B2EFD13046BDE8F047A7
:1027D0000121FEF7F6B938B50020ADF80000404CF5
:1027E0003E4D01212046FEF7E2F914212046FEF776
:1027F0002DFAADF80000297900222046FEF71EFAD6
:1028000014212046FEF722FA8007EAD537492046F0
:10281000FEF7AAFA2046BDE838400121FEF7D1B9FB
:102820002DE9F0472D4F05460C467879B2FBF0F1C3
:10283000CEB200FB112101F0FF08B4FBF0F100FB68
:102840001141B9B1B946471ABA4223D9D11B89B24D
:10285000B1FBF0F200FB1210D6B2C0B21CE07A79E4
:1028600021462846FFF764FFFFF7B5FF7879011985
:102870008CB205443000A6F10106F6B2EFD15FEA52
:10288000080027D0024621462846FFF751FFBDE841
:10289000F047A0E70026304680464FB1FAB2214605
:1028A0002846FFF745FFFFF796FFE01984B23D4445
:1028B0004F463000A6F10106F6B2E0D07A79214603
:1028C0002846FFF735FFFFF786FF787901198CB2AC
:1028D0000544EEE7BDE8F087000C01402C00002025
:1028E00000540040010003008200070000040010B3
:1028F0007FB50D46044601210220FEF769FBADF8C5
:1029000004400020ADF80050194CADF80600ADF8B9
:10291000020069462046FEF739FC01221146204696
:10292000FEF7F1FE1D208DF80C0001218DF80D1031
:1029300003228DF80E208DF80F1003A8FDF7DDFCA3
:1029400001212046FEF7CAFE7FBD10B5084C0121CB
:102950002046FFF7ECF8002809D0064920460A88EF
:10296000521C0A80BDE810400121FFF7ECB810BDF1
:102970000004004034000020012080F313882F4819
:1029800001682F4A01F4E06111430160BFF3408FF9
:10299000FEE730B54FF4165185B04FF461430A4657
:1029A0000720FFF75FFB4FF4A060FDF7A1FCFFF7E6
:1029B00069FDFFF7CDFDFDF7BFFBFFF7AFFD01217F
:1029C0000D20FEF7FCFA0820ADF8000010208DF86D
:1029D000030003208DF8020069461A48FDF777FFCF
:1029E00000F062F9184C0720211D0EC9FFF73AFBD1
:1029F000164D2846FFF70AFC606900F047FE226981
:102A00000AB113A200E013A202AB07C3E068009072
:102A10000ECC114801F018F91421104800F02BFEDB
:102A200000F0E6FC2846FFF7F1FBAFF2990105B094
:102A30000BA0BDE8304001F007B900000CED00E04C
:102A40000400FA0500080140500200200048004040
:102A5000796573006E6F00002C450008B00A0020F5
:102A60002648616564776172655F496E69743D25CA
:102A7000700D0A002DE9F041A74F064615460C4699
:102A80003846FFF7C3FB3146A4A001F0DDF83E460F
:102A900006E0FFF7BBFB14F8011BA1A001F0D4F87E
:102AA0006D1E681C3046F4D1FFF7B0FBBDE8F04165
:102AB0009DA001F0C9B82DE9F05FDFF870A20446CF
:102AC0008088DAF80010002540BADFF84C92814285
:102AD00008D04846FFF79AFB95A001F0B5F8012011
:102AE000BDE8F09FE088984E90FA90F801274FF4E7
:102AF000803B35E018EA000032D0802830D1DAF887
:102B0000100000B10120217A01B10121884227D1B2
:102B10004846FFF77BFB8DA001F096F89048F760E0
:102B200040680028484622D0FFF770FB8DA001F0D6
:102B30008BF8412037612072812060700A22214683
:102B400004F10A0000F0D0F90C2221468AA0FFF718
:102B500091FF0C2221469148FFF7DCFB00F03BFB84
:102B600007FA05F06D1C5845C4D10020B8E7FFF7FF
:102B70004DFB8BA001F068F8002030614220DAE7BD
:102B80002DE9F047DFF82C821D4691460E46074698
:102B90000024321B391943464846FFF791FB044491
:102BA000B44202D26D1EF4D101E0002D09DC5A4876
:102BB000FFF72CFB80A001F047F84FF0FF30BDE895
:102BC000F0870020FBE72DE9F04704460020206055
:102BD0000525606092468946A060461E4E4FDFF88C
:102BE000D48104E041464846FFF788FB20702078F6
:102BF000C04310F0FF0F02D06D1EF3D206E0002D8F
:102C000009DC2078C04310F0FF0F04D03846FFF7EE
:102C1000FDFA70A018E053464A460B21601CFFF7EE
:102C2000AFFF401C14D00C22214674A0FFF722FFF6
:102C30000A22214604F10A0000F06DF90028BED0F6
:102C40003846FFF7E3FA74A000F0FEFF3046B6E71F
:102C50003846FFF7DBFA7CA0F6E73EB50C460021CC
:102C60000546009101912C480291FFF7CFFA7FA011
:102C700000F0EAFF224629466846FFF7A4FF10B19C
:102C80004FF0FF303EBD9DF80100082804DA01280E
:102C900002D16846FFF70FFF00203EBD13460A46EB
:102CA00001461846FFF736BB2DE9F0411C222421CE
:102CB0007748FFF7C2FC7649182201F11800064652
:102CC00000F029F9724C082500281BD0124F384615
:102CD000FFF79CFA6FA000F0B7FF1C2240F22441DE
:102CE0002046FFF7AAFC18222146304600F013F9CF
:102CF00040B13846FFF78AFA6FA000F0A5FF012027
:102D0000606101E0606908B1764801E07548001F24
:102D10000560BDE8F08100000048004025733A00DE
:102D200030782530327820000D0A00005002002053
:102D300053696E676C65206164647220556E4D61E5
:102D4000746368210D0A0000B00A002055706461A8
:102D500074652053696E676C65210D0A00000000E0
:102D6000980A002055706461746520496D6167653B
:102D70002041210D0A0000003C5570646174653EDD
:102D800053696E676C6520526573706F6E73204374
:102D90006F6F7264696E61746500000000380140F5
:102DA00055706461746520496D6167652042210D2D
:102DB0000A00000040420F005265637620506163B4
:102DC0006B6167652074696D65206F7574210D0AEC
:102DD000000000003C526563764F6E655061636B86
:102DE0006167653E5761697420486561646572205A
:102DF00074696D65206F7574210D0A002A2A2A2ACC
:102E00002A2A2A2A2A2A2A2A2A2A2A2A2A2A2A2A22
:102E10002A2A2A2A2A0000003C526563764F6E65F2
:102E20005061636B6167653E5265637620706163D4
:102E30006B6167652043524320636865636B20655F
:102E40007272210D0A0000003C526563764F6E6578
:102E50005061636B6167653E526563765F50616385
:102E60006B61676520657272210D0A002A2A2A2A81
:102E70002A57616974696E672052656376205061D4
:102E8000636B616765212A2A2A2A2A0D0A0000003D
:102E90007C0A002047657420475F6D657373616726
:102EA0006520437263313620636865636B20657209
:102EB00072210D0A0000000047657420475F6D65B0
:102EC000737361676520437263313620636865639D
:102ED0006B2065727220666F726D206261636B2178
:102EE0000D0A000014080140F0B5FF231C465AB13A
:102EF000154E06F58077521E09D311F8015B5D402F
:102F0000735D63407C5DF6E74FF0FF30F0BD047009
:102F100043700020F0BD38B504460020451E0090E7
:102F2000002A0EDD6846FFF7DFFF9DF800002178DC
:102F3000884206D19DF801006178884201D10020C5
:102F400038BD284638BD0000360000200CB54B487F
:102F5000C16941F00101C1614948016841F08051F6
:102F600001600021ADF80010ADF8041041F210002E
:102F7000ADF8000043F23330ADF80400BDF8002096
:102F80004FF080400283BDF800208283BDF804200A
:102F900002848180018141F61F42028549F6404248
:102FA0008285828647F23052028744F62062828709
:102FB0005210A0F8402001228282018281845F2188
:102FC000818102800CBD10B54FF08042108A2D4BDC
:102FD000810749F640400CD5118A21F00201118287
:102FE000918E198019880144B1FBF0F400FB141193
:102FF0009186118A49070ED5118A21F004011182A8
:10300000118F1980198847F230542144B1FBF0F434
:1030100000FB14111187118A09070ED5118A21F0BE
:1030200008011182918F1980198844F62064214487
:10303000B1FBF0F400FB14119187118AC9061BD56E
:1030400032F8101F21F010011180118E198019889B
:1030500042F210742144B1FBF0F400FB141010860E
:103060005968022019B100215960074903E0012184
:1030700059600549091D086010BD0000001002409C
:1030800000E100E038020020100C01402DE9F84F6B
:103090007A4F00247E1CA7F114000521DFF8E0B16F
:1030A000784DDFF8E4914FF0FF3A80468160C4F13B
:1030B000870231192B465846FFF702F90444872C42
:1030C00006D2D8F80800401EC8F80800EFD104E086
:1030D000D8F808004646002806DC4846FFF796F870
:1030E0006AA000F0B1FD74E0F06800282ED06E48B0
:1030F000016941B10078797888420FD04846FFF7DE
:1031000085F86AA01BE0008881B2788840BA8142C5
:1031100004D04846FFF77AF86BA010E07A79387946
:10312000D243D2B2904246D154488022B91D863053
:10313000FFF7F1FE30B14846FFF768F868A000F0ED
:1031400083FD38E000F00CF988B134E06A4F882242
:103150004A493846FFF7DEF8032429463846FFF788
:10316000CDF8062803D0152825D0F02821D0062038
:103170008DF80000012269465846FFF7CBF8306809
:103180004C46803030604846FFF740F85BA000F0C6
:103190005BFD3168B1F5484F08D92046FFF736F896
:1031A00057A000F051FD5B49002008600020BDE8F9
:1031B000F88F641ED1D14846FFF728F856A000F0DA
:1031C00043FD15208DF80000012269465846FFF79F
:1031D000A1F85046EBE72DE9F0472B4F3846FFF7B3
:1031E00015F85D224D494EA000F02EFD494D0124F9
:1031F000DFF89080DFF88890204E2C6041464846EA
:10320000FFF77CF83070012808D0042804D0182873
:1032100031D0F0282AD124E0002028600124FFF7D3
:1032200035FF2968084302D0A01E2860E6E738462B
:10323000FEF7ECFF11481438006908B1412100E0A5
:1032400042213AA000F000FD3846FEF7DFFF317959
:103250003EA0491C00F0F8FC00F0F8F8FCF7A4FFD1
:1032600004E02046641C052800D9002428680028B2
:1032700001D0002CC2D1BDE8F0870000C40A0020B4
:103280000038014040420F0000480040526563761C
:10329000205061636B6167652074696D65206F758F
:1032A00074210D0A0000000050020020436F6F726D
:1032B00064696E617465204164647220556E6D614D
:1032C00063680D0A0000000053696E676C65204159
:1032D00064647220556E6D6163680D0A0000000021
:1032E000232A23435243313620636865636B20658C
:1032F00072726F72210D0A0000440040230000002A
:10330000496D616765206F7665722072616E6765D1
:10331000210D0A004002002024000000764500082C
:103320003C25733E25642E0D0A0000000A0D5570E1
:103330006461746520496D6167652025632053755C
:103340006363657373210D0A0000000047657420F4
:103350004672616D652053756D3A25640D0A000053
:10336000F8B57348714E002501693046B41D0079E7
:1033700009B1704900E0704901EBC0100090FDF701
:1033800028F83420FDF735FA30796C4F40070DD11D
:103390000098FDF758F80646042807D03846FEF78F
:1033A00035FF324666A0009900F04EFC5F4E86362F
:1033B000B44219D221880098FDF707F904280DD0EE
:1033C0006D1C0A2DF4DDFDF710F83846FEF71EFFE0
:1033D00064A000F039FC4FF0FF30F8BD0098A41C49
:1033E000801C00250090E3E7FCF7FFFF0020F8BDFC
:1033F00070B5FDF789F820B1FCF7EBFF0020FDF771
:103400006AF960485E49614A01605F48604C10603B
:103410000A6822604A68626089685E4DA16001683E
:103420002960416869608068444EA8603046FEF7B4
:10343000EDFE0ECC58A000F007FC3046FEF7E6FE8D
:103440000ECDBDE8704064A000F0FEBB2DE9F04752
:10345000DFF8DC904E4D4846494FD9F8101000680F
:10346000DFF8308100242E4629B1D8F80810491C15
:10347000B160306005E0B268521CC8F80820C8F896
:103480000000FCF7A6FF3420FDF7B3F93846FCF73F
:10349000DAFFDFF8A8A0042805D05046FEF7B6FEF4
:1034A0005DA000F0D1FB29883846FDF78EF804288E
:1034B0002BD05046FEF7AAFE5FA000F0C5FB324FAE
:1034C000344D3846FCF7BFFF042805D05046FEF7C0
:1034D0009DFE51A000F0B8FB002429883846FDF776
:1034E00074F8042817D05046FEF790FE58A000F05C
:1034F000ABFBFCF77AFF0021D9F81020481E82B1FF
:103500007160C8F80400BDE8F087BF1CA41CAD1CA6
:103510000C2CC8D3D3E7BF1CA41CAD1C0C2CDCD3D3
:10352000E7E77060C8F80410EDE70000C40A002067
:10353000B00A002000600008003801080048004080
:103540004572617365205061676520416464723A19
:1035500030782530385820207374617475733D2598
:10356000640D0A00464C4153485F50726F677261A8
:103570006D576F7264206572726F72210D0A0000C0
:1035800000500008440200200028010848020020E2
:10359000980A0020A40A0020496D616765415F49CF
:1035A0006E666F3A0D0A09496D6167655F53697A06
:1035B000653D25640D0A0949735F5375636365733F
:1035C000733D25780D0A095570646174655F7469EF
:1035D0006D653D25780D0A00496D616765425F495B
:1035E0006E666F3A0D0A09496D6167655F53697AC6
:1035F000653D25640D0A0949735F537563636573FF
:10360000733D25780D0A095570646174655F7469AE
:103610006D653D25780D0A00457261736520496D21
:10362000616765204220496E666F20537461727431
:1036300020657272210D0A00464C41534820507299
:103640006F6772616D204120455252210D0A0000C2
:10365000464C4153482050726F6772616D20422082
:10366000455252210D0A0000D2B201E000F8012BB0
:10367000491EFBD270470022F6E710B513460A46F2
:1036800004461946FFF7F0FF204610BD00F0004247
:1036900030F000400AD0C10D01F56071C0F3160092
:1036A00042EA0151C2084007114370470020014619
:1036B000704730B50B46014600202022012409E066
:1036C00021FA02F59D4205D303FA02F5491B04FADB
:1036D00002F52844151EA2F10102F1DC30BD2DE9EE
:1036E000F05F0546002092469B4688460646814686
:1036F00040241BE0284641464746224600F0F5F9A3
:1037000053465A46C01A914110D3114618462246D4
:1037100000F0DCF92D1A67EB01084F462246012024
:10372000002100F0D3F917EB00094E41201EA4F14F
:103730000104DFDC484631462A464346BDE8F09F97
:103740002DE9FE4F804681EA0300C00F0C46009031
:1037500021F0004123F00045B8EB0200A94105D259
:103760004046214690461C460B46024623F0004048
:10377000104304D14046214603B0BDE8F08F270D29
:10378000C7F30A00C3F30A510290401A019040287F
:1037900066DAC3F3130040F4801B0098924620B110
:1037A0000023D2EB030A63EB0B0B01985946C0F1DF
:1037B0004002504600F08AF906460D4650465946EA
:1037C000019A00F0A2F910EB08006141002487EA99
:1037D000115284EAE7731A433BD0009A3AB3019A34
:1037E000012A4FEA075210DC001B61EB02014FF087
:1037F000004202EA0752CDE90042001C41F5801167
:1038000032462B4600F0A0F9B6E7001B61EB02013F
:10381000001C41F5801300185B412018A2F5001729
:1038200047EB030140EAD570B6196D4111E06D0810
:103830004FEA360645EAC0754FEA0752001B61EBB6
:103840000201001C41F5801149084FEA30000019BF
:10385000514132462B4603B0BDE8F04F00F067B946
:103860000098012240000023D0EB020263EBE073DA
:10387000009821464FEAE074B8EB000061EB0401C8
:10388000E9E783F000435BE781F0004158E72DE969
:10389000FE4F81EA030404F0004421F0004100944B
:1038A0004FF0000B23F0004350EA010402D052EA2B
:1038B000030404D10020014603B0BDE8F08FC3F338
:1038C0000A54C1F30A552C44A4F2F3340194A0FB2A
:1038D0000254C1F3130141F48011C3F3130343F401
:1038E000801301FB024400FB034E840A970A44EA5A
:1038F000815447EA8357A4FB076802958D0A05FBAC
:1039000007854FEA932C04FB0C542705029D4FEAD0
:10391000065847EA1637B5EB08056EEB070C870E1D
:10392000920E47EA811742EA8312A7FB0201B6EB27
:103930000B0164EB00042B0D43EA0C335E1844EBDF
:103940001C50DA465146E7FB0201C5F313044FEA67
:103950000B3343EA14534FEA0432019C43EA060353
:10396000A4F10C040294009CCDE900B400F0ECF842
:10397000A2E72DE9F04D81EA030404F0004B21F0A9
:10398000004514464FF0000A23F0004150EA0502BA
:1039900020D054EA01021DD0C5F30A570246C5F3F0
:1039A0001303C1F31300C1F30A5640F4801543F426
:1039B0008013A7EB0608101BD64608F2FD3873EB00
:1039C000050002D308F1010801E092185B41B8F14B
:1039D000000F03DA00200146BDE8F08D00204FF40F
:1039E0008011064684460EE0171B73EB050705D3CE
:1039F000121B63EB050306434CEA010C49084FEA2E
:103A0000300092185B4150EA0107EDD152EA030001
:103A100012D082EA040083EA0501084303D10022A0
:103A20004FF0004308E0101BAB4102D201220023FB
:103A300002E06FF0010253101AEB06004CEB085144
:103A400010EB0A0041EB0B01BDE8F04D00F06FB840
:103A5000C1F30A52C1F3130140F2FF3341F4801164
:103A60009A4202DA00200146704740F233439A42FC
:103A7000A2F2334202DC524200F037B800F026B81E
:103A800030B5002904DB4FF00044404264EB0101F3
:103A9000002B04DB4FF00044524264EB03039942D5
:103AA00008BF904230BD0000064C074D06E0E068BC
:103AB00040F0010394E8070098471034AC42F6D375
:103AC000FCF718FB8C450008AC450008202A04DBF5
:103AD000203A00FA02F1002070479140C2F1200321
:103AE00020FA03F3194390407047202A04DB203A60
:103AF00021FA02F00021704721FA02F3D040C2F10E
:103B000020029140084319467047202A06DBCB1754
:103B1000203A41FA02F043EAE07306E041FA02F388
:103B2000D040C2F12002914008431946704710B5B9
:103B3000002B08DA401C41F1000192185B411A4346
:103B400001D120F0010010BD2DE9F04D92469B46B9
:103B500011B1B1FA81F202E0B0FA80F2203290465F
:103B6000FFF7B4FF04460F4640EA0A0041EA0B01A2
:103B700053465A46084303D120463946BDE8F08DE6
:103B8000114653EA010015D0C8F140025046FFF734
:103B9000ACFF05460E46504659464246FFF796FF93
:103BA000084301D0012000E00020054346EAE0760A
:103BB0002C4337430A984FEA4453A0EB08004FEADE
:103BC000D4240A304FF0000244EA47544FEAD72584
:103BD00002D500200146D1E7010510196941DDE950
:103BE000084500196941BDE8F04DA0E770B501EB4B
:103BF000020410F8015B15F0070301D110F8013B36
:103C00002A1106D110F8012B03E010F8016B01F81E
:103C1000016B5B1EF9D12B0705D40023521E0FD474
:103C200001F8013BFAE710F8013B02F10202A1EBB7
:103C3000030303E013F8015B01F8015B521EF9D5A1
:103C4000A142D6D3002070BD0FB4054B10B503A917
:103C5000044A029800F0C6F810BC5DF814FB00009E
:103C6000F52100084C02002002E008C8121F08C11C
:103C7000002AFAD170477047002001E001C1121FED
:103C8000002AFBD1704700002DE9FF5FDDE902202B
:103C9000010DDDF838B0024310D10F9801244CA279
:103CA000012808D0002100980F9BC0E90021C0E93D
:103CB0000243BDE8FF9F6FEA0B01F4E7A1F2FF3179
:103CC00044F6105041430D140F9801280ED0A5EB77
:103CD0000B00401C4FF000043E4EDFF8FC90B0F1AA
:103CE000000AA04605DACAF1000717E0CBF1000090
:103CF000F0E7074612E0F80707D022463346404671
:103D00004946FFF7C4FD80468946224633461046A1
:103D10001946FFF7BCFD04460E467F10002FEAD17E
:103D2000DDE90201BAF1000F42464B4602DAFFF725
:103D3000AEFD01E0FFF71DFE04460E460022274BB4
:103D4000FFF79EFE03D84FF0FF30014607E0002248
:103D5000234B20463146FFF7F3FCFFF779FE102492
:103D600009E0002C0ADB0A220023FFF7B8FC019BC4
:103D700030321A55641E50EA0102F2D1641C019AD5
:103D8000C4F1110314440F9A012A09D001220843F7
:103D900001D15B450FDD4FF0000205F101050DE09B
:103DA000084303D1A3EB0B056D1E09E000204FF083
:103DB000110B0F9088E701DA00226D1E002A83D0D4
:103DC00000980F99C0E90231C0E9004571E7000091
:103DD00030000000000024400000F03F0000F043ED
:103DE0000000E03F2DE9FF4F95B09B46894606460F
:103DF000002512E2252878D10024761CF94A2746AE
:103E0000012105943378203B01FA03F0104202D0DF
:103E10000443761CF6E730782A2811D06FF02F0380
:103E20003078A0F13002092A16D8059A44F002042D
:103E300002EB820203EB42021044761C0590EFE78E
:103E400059F8042B0592002A03DA504244F4005436
:103E5000059044F00204761C30782E2816D116F80E
:103E6000010F44F004042A280DD06FF02F0230789F
:103E7000A0F13003092B09D807EB870302EB4303BA
:103E8000C718761CF3E759F8047B761C30786C2849
:103E90000FD006DC4C2817D068280DD06A2814D122
:103EA00004E0742810D07A280FD10DE044F40014F7
:103EB0000AE044F4801401E044F440147278824231
:103EC00002D1761C04F58014761C307866280BD05D
:103ED00013DC582877D009DC002875D04528F6D0A7
:103EE0004628F4D047281AD19FE118E0632835D03E
:103EF000642879D0652812D197E1702873D008DC46
:103F00006728F1D069286FD06E280DD06F2806D1B0
:103F1000B5E073282CD0752875D0782874D05A460F
:103F2000179990476D1C76E1C4F30250022809D01E
:103F300003280DD0D9F8001004280DD00D6009F128
:103F4000040968E1D9F80010EA17C1E90052F6E760
:103F5000D9F800100D80F2E70D70F0E719F8041B96
:103F60008DF8001000208DF80100EA46012003E0E2
:103F700059F804AB4FF0FF3061074FF0000102D455
:103F80000DE008F101018846B9420FDA8045F8DBFF
:103F90001AF808100029F4D108E008F10101884658
:103FA0008142FADB1AF808100029F6D105985B4621
:103FB000A0EB080721463846179A00F09EFA2844DD
:103FC00000EB080507E04DE02BE10DE01AF8010BCE
:103FD0005A4617999047B8F10108F7D25B46214637
:103FE0003846179A14E142E00A220092C4F30252C2
:103FF0004FF0000A022A08D059F804CB032A4FEAEE
:10400000EC710AD00DE029E02AE009F1070121F066
:104010000702F2E802C1914609E00FFA8CFC4FEA70
:10402000EC71042A03D14FFA8CFC4FEAEC710029A1
:1040300007DA0A460021DCF1000C61EB02012D22B7
:1040400002E0220504D52B228DF80420012203E092
:10405000E20701D02022F7E7904653E00A2102E070
:1040600010220DE010214FF0000A00910BE0102209
:104070004FF0000A44F004040827009203E00822ED
:104080004FF0000A0092C4F30252022A05D059F8F8
:1040900004CB0021032A08D009E009F1070121F02F
:1040A0000702F2E802C1914605E01FFA8CFC042ADF
:1040B00001D10CF0FF0C4FF00008220722D5702828
:1040C00027D0009B83F0100353EA0A0309D15CEA6E
:1040D000010206D030228DF804208DF8050002225E
:1040E0009046009B83F0080353EA0A030AD15CEA76
:1040F000010201D1620705D530228DF804204FF06E
:1041000001087F1E582809D037A003900EA80290FE
:1041100013E040228DF804200122E1E737A0F4E704
:1041200053466046009AFFF7DAFA84460398825CA9
:104130000298A0F10100029002705CEA0100EFD148
:10414000029806A9A1EB000000F1200A600702D541
:1041500024F4803400E00127574502DDA7EB0A0074
:1041600000E0002000EB0A01009005984144A0EB1C
:1041700001000590E00306D45B462146179A059896
:1041800000F0BBF90544002706E001A85A46C05DCF
:10419000179990476D1C7F1C4745F6DBE0030CD553
:1041A0005B462146179A059800F0A7F9054404E0FC
:1041B00030205A46179990476D1C0099481E009070
:1041C0000029F5DC08E0029802995A460078491C5B
:1041D0000291179990476D1CBAF10001AAF1010AEA
:1041E000F1DC6BE1092801003031323334353637E8
:1041F0003839616263646566000000003031323333
:1042000034353637383941424344454600000000D2
:1042100000F060F9054406F10106307800287FF4CB
:10422000E9AD19B02846BDE8F08F620700D4062733
:1042300009F1070222F0070CFCE80223E14603F033
:1042400000485FEA080C02D00FF27C2C0DE05FEA18
:10425000045C02D50FF2742C07E05FEAC47C02D044
:104260000FF26C2C01E0AFF2700C4FF0FF3823F02E
:104270000043CDF850C065280CD006DC452809D095
:1042800046281DD047283ED13EE0662818D0672832
:1042900039D139E00021112F01DB112000E0781C19
:1042A000CDE9000106A90EA8FFF7EEFCDDE90F013C
:1042B0000E9A03910021009207F1010A04914EE049
:1042C0004FF000400097CDE9011006A90EA8FFF7B6
:1042D000DBFCDDE90F0203920E9B11990022DDF851
:1042E0000CA00093049219B907F1010100EB010A37
:1042F000B7EB0A0004D4C0F1FF3007F1010A0490C3
:10430000AAEB0700019046E0012F00DA0127002107
:10431000112F01DD112000E03846CDE9000106A98A
:104320000EA8FFF7B1FCDDE90F010E9A0391002101
:1043300004910092BA4621070CD40399514500DA42
:104340008A46BAF1010F05DD009AAAF10101515C1C
:10435000302908D0B84202DA10F1040F06DA012140
:10436000CDE9011017E0AAF10101E9E7002805DC19
:10437000049901440491AAEB000102E0411C51455B
:1043800000DD8A460499A0EB010000F101000190D4
:104390004FF000400290200704D40198504501DB03
:1043A000CDF8048000208DF84F0002980DF14F07E2
:1043B000B0F1004F25D02B200E9002984FF002084C
:1043C00000280CDA404202902D200E9007E00A21CE
:1043D0000298FFF76EF93031029007F8011DB8F12D
:1043E0000001A8F10108F2DC02980028EFD1791E43
:1043F0000E980870307800F0200040F0450007F873
:10440000020D12A8A0EB070000F10708149800782D
:1044100000B1012000EB0A01019801EBE071059861
:104420004144A0EB0100A0F101000590E00306D497
:104430005B462146179A059800F05FF805441498EA
:10444000007820B15A461799904705F10105E0031D
:1044500023D55B462146179A059800F04EF805448F
:104460001BE00498002807DBDDE90301884203DD37
:104470000098405C179901E0179930205A46904700
:1044800004986D1C401C04900198401E019004D1BA
:104490002E205A46179990476D1CBAF10001AAF1D7
:1044A000010ADEDC05E017F8010B5A461799904720
:1044B0006D1CB8F10001A8F10108F4DC5B4621464F
:1044C000179A0598A4E600002D0000002B000000BC
:1044D000200000002DE9F041044600251E46174645
:1044E000880405D406E039462020B04705F10105CF
:1044F000641EF8D52846BDE8F0812DE9F041044658
:1045000000251E469046C80301D5302700E020272D
:10451000880405D506E041463846B04705F1010557
:10452000641EF8D52846BDE8F0810000416464723D
:104530003D3078253034782C426F756E643A556181
:104540007274313D25642C55617274323D25642CA2
:1045500055617274333D25642C566F6C74616765C8
:104560005F4B3A25662C49735F436F6F7264693AFB
:104570002025730D0A00446F776E6C6F61645F4194
:1045800070706C69636174696F6E0000AC450008FF
:104590000000002050020000EC3B0008F04600083C
:1045A00050020020000D0000783C0008450204067F
:1045B000082D0102030404150607080984A24A0411
:1045C00079143114400D0344A0100A2808C1814019
:1045D00001C0804104690C2908E918A91C091A3096
:1045E000091638093660092E70092F6000FF00C0D7
:1045F000C101C30302C2C60607C705C5C404CC0C6B
:104600000DCD0FCFCE0E0ACACB0BC90908C8D818DA
:1046100019D91BDBDA1A1EDEDF1FDD1D1CDC14D4EA
:10462000D515D71716D6D21213D311D1D010F0301A
:1046300031F133F3F23236F6F737F53534F43CFC2A
:10464000FD3DFF3F3EFEFA3A3BFB39F9F83828E8DA
:10465000E929EB2B2AEAEE2E2FEF2DEDEC2CE424AA
:1046600025E527E7E62622E2E323E12120E0A0601A
:1046700061A163A3A26266A6A767A56564A46CACEA
:10468000AD6DAF6F6EAEAA6A6BAB69A9A86878B85A
:10469000B979BB7B7ABABE7E7FBF7DBDBC7CB4746A
:1046A00075B577B7B67672B2B373B17170B050901A
:1046B00091519353529296565797559594549C5CAA
:1046C0005D9D5F9F9E5E5A9A9B5B9959589888485A
:1046D00049894B8B8A4A4E8E8F4F8D4D4C8C44842A
:1046E00085458747468682424383418180021A403E
:04000005080000ED02
:00000001FF
